:10000000A006002089010008C5080008BD080008F6
:10005000430200084302000843020008430200086C
:10006000430200084302000843020008430200085C
:10007000430200084302000843020008430200084C
:020000040800F2
:10008000430200084302000843020008430200083C
:10009000430200084302000843020008430200082C
:1000A000430200084302000843020008430200081C
:10001000C108000843020008791000080000000031
:10003000B50600080000000075090008F50C00086E
:10004000A3010008A3010008A3010008A301000800
:1003C00042EA04221343436083680C4A1340D1E994
:020000021010DC
:1003D000034222434D798C6844EA450422431A4380
:1003E0008260C26A22F47002097D491EC9B242EAE3
:1003F0000151C16230BD0000FFFEFFFCFDF7FFC0F0
:1004000070B5072609290AD9C568A1F10A0404EBC9
:100410004404A640B543A3401D43C56007E00569F9
:1004200001EB4104A640B543A3401D4305611F23D2
:10043000072A09D2446B521E02EB820293409C436E
:1004400091400C43446370BD0D2A09D2046BD21F46
:1004500002EB820293409C4391400C43046370BDC5
:10046000C46A0D3A02EB820293409C4391400C43D4
:080FC000010203040607080901
:04000005080000ED02
:00000001FF
